{
    "contractName": "Hello",
    "abi": [
        {
            "inputs": [
                {
                    "internalType": "string",
                    "name": "_greeting",
                    "type": "string"
                }
            ],
            "stateMutability": "nonpayable",
            "type": "constructor"
        },
        {
            "inputs": [],
            "name": "displayGreeting",
            "outputs": [
                {
                    "internalType": "string",
                    "name": "",
                    "type": "string"
                }
            ],
            "stateMutability": "view",
            "type": "function"
        }
    ],
    "bytecode": "608060405234801561001057600080fd5b506040516103b73803806103b783398101604081905261002f916100e2565b8051610042906000906020840190610049565b5050610202565b828054610055906101b1565b90600052602060002090601f01602090048101928261007757600085556100bd565b82601f1061009057805160ff19168380011785556100bd565b828001600101855582156100bd579182015b828111156100bd5782518255916020019190600101906100a2565b506100c99291506100cd565b5090565b5b808211156100c957600081556001016100ce565b600060208083850312156100f557600080fd5b82516001600160401b038082111561010c57600080fd5b818501915085601f83011261012057600080fd5b815181811115610132576101326101ec565b604051601f8201601f19908116603f0116810190838211818310171561015a5761015a6101ec565b81604052828152888684870101111561017257600080fd5b600093505b828410156101945784840186015181850187015292850192610177565b828411156101a55760008684830101525b98975050505050505050565b600181811c908216806101c557607f821691505b602082108114156101e657634e487b7160e01b600052602260045260246000fd5b50919050565b634e487b7160e01b600052604160045260246000fd5b6101a6806102116000396000f3fe608060405234801561001057600080fd5b506004361061002b5760003560e01c8063bdcaa95814610030575b600080fd5b61003861004e565b60405161004591906100e0565b60405180910390f35b60606000805461005d90610135565b80601f016020809104026020016040519081016040528092919081815260200182805461008990610135565b80156100d65780601f106100ab576101008083540402835291602001916100d6565b820191906000526020600020905b8154815290600101906020018083116100b957829003601f168201915b5050505050905090565b600060208083528351808285015260005b8181101561010d578581018301518582016040015282016100f1565b8181111561011f576000604083870101525b50601f01601f1916929092016040019392505050565b600181811c9082168061014957607f821691505b6020821081141561016a57634e487b7160e01b600052602260045260246000fd5b5091905056fea2646970667358221220f93f71a88dbb3bff7270f1081fbebfbfd07f9a2dbe54e16fe67aa23ca71a19c264736f6c63430008060033",
    "sourcePath": "c:/Personal/BlockChain/MetaCoin/contracts/Hello.sol",
    "compiler": {
        "name": "solc",
        "version": "0.8.6+commit.11564f7e"
    },
    "functionHashes": {
        "displayGreeting()": "bdcaa958"
    },
    "gasEstimates": {
        "creation": {
            "codeDepositCost": "84400",
            "executionCost": "infinite",
            "totalCost": "infinite"
        },
        "external": {
            "displayGreeting()": "infinite"
        }
    }
}