{
  "contractName": "CanaraBank",
  "abi": [
    {
      "inputs": [],
      "payable": true,
      "stateMutability": "payable",
      "type": "constructor"
    },
    {
      "anonymous": false,
      "inputs": [
        {
          "indexed": true,
          "internalType": "address",
          "name": "accountAddress",
          "type": "address"
        },
        {
          "indexed": false,
          "internalType": "uint256",
          "name": "depositAmt",
          "type": "uint256"
        }
      ],
      "name": "LogDepositEvent",
      "type": "event"
    },
    {
      "constant": true,
      "inputs": [],
      "name": "owner",
      "outputs": [
        {
          "internalType": "address",
          "name": "",
          "type": "address"
        }
      ],
      "payable": false,
      "stateMutability": "view",
      "type": "function"
    },
    {
      "constant": false,
      "inputs": [],
      "name": "deposit",
      "outputs": [
        {
          "internalType": "uint256",
          "name": "",
          "type": "uint256"
        }
      ],
      "payable": true,
      "stateMutability": "payable",
      "type": "function"
    },
    {
      "constant": false,
      "inputs": [
        {
          "internalType": "uint256",
          "name": "amount",
          "type": "uint256"
        }
      ],
      "name": "withdraw",
      "outputs": [
        {
          "internalType": "uint256",
          "name": "",
          "type": "uint256"
        }
      ],
      "payable": true,
      "stateMutability": "payable",
      "type": "function"
    },
    {
      "constant": true,
      "inputs": [],
      "name": "getBankBalanceofCustomer",
      "outputs": [
        {
          "internalType": "uint256",
          "name": "",
          "type": "uint256"
        }
      ],
      "payable": false,
      "stateMutability": "view",
      "type": "function"
    },
    {
      "constant": true,
      "inputs": [],
      "name": "getBankBalance",
      "outputs": [
        {
          "internalType": "uint256",
          "name": "",
          "type": "uint256"
        }
      ],
      "payable": false,
      "stateMutability": "view",
      "type": "function"
    }
  ],
  "bytecode": "0x6080604052601e341461005d576040517f08c379a00000000000000000000000000000000000000000000000000000000081526004018080602001828103825260278152602001806105456027913960400191505060405180910390fd5b6000808190555033600260006101000a81548173ffffffffffffffffffffffffffffffffffffffff021916908373ffffffffffffffffffffffffffffffffffffffff160217905550610491806100b46000396000f3fe60806040526004361061004a5760003560e01c806321c652411461004f5780632e1a7d4d1461007a5780637b83b50b146100bc5780638da5cb5b146100e7578063d0e30db01461013e575b600080fd5b34801561005b57600080fd5b5061006461015c565b6040518082815260200191505060405180910390f35b6100a66004803603602081101561009057600080fd5b81019080803590602001909291905050506101a3565b6040518082815260200191505060405180910390f35b3480156100c857600080fd5b506100d1610317565b6040518082815260200191505060405180910390f35b3480156100f357600080fd5b506100fc61031f565b604051808273ffffffffffffffffffffffffffffffffffffffff1673ffffffffffffffffffffffffffffffffffffffff16815260200191505060405180910390f35b610146610345565b6040518082815260200191505060405180910390f35b6000600160003373ffffffffffffffffffffffffffffffffffffffff1673ffffffffffffffffffffffffffffffffffffffff16815260200190815260200160002054905090565b6000600160003373ffffffffffffffffffffffffffffffffffffffff1673ffffffffffffffffffffffffffffffffffffffff16815260200190815260200160002054821061023c576040517f08c379a00000000000000000000000000000000000000000000000000000000081526004018080602001828103825260358152602001806104286035913960400191505060405180910390fd5b81600160003373ffffffffffffffffffffffffffffffffffffffff1673ffffffffffffffffffffffffffffffffffffffff168152602001908152602001600020600082825403925050819055503373ffffffffffffffffffffffffffffffffffffffff166108fc839081150290604051600060405180830381858888f193505050501580156102cf573d6000803e3d6000fd5b50600160003373ffffffffffffffffffffffffffffffffffffffff1673ffffffffffffffffffffffffffffffffffffffff168152602001908152602001600020549050919050565b600047905090565b600260009054906101000a900473ffffffffffffffffffffffffffffffffffffffff1681565b600034600160003373ffffffffffffffffffffffffffffffffffffffff1673ffffffffffffffffffffffffffffffffffffffff168152602001908152602001600020600082825401925050819055503373ffffffffffffffffffffffffffffffffffffffff167f7d2a0ec6fbd969556cc1a97210b6fc713189fb904c8b7664431f689c218c5ee0346040518082815260200191505060405180910390a2600160003373ffffffffffffffffffffffffffffffffffffffff1673ffffffffffffffffffffffffffffffffffffffff1681526020019081526020016000205490509056fe42616e6b2042616c616e63652073686f756c642062652067726561746572207468616e207769746864726177616c20616d6f756e74a265627a7a723158208877a7354f0801a8bf189047c97f2707bb45e2ca9b335a1208a2aedfe0a0894a64736f6c63430005100032496e697469616c204465706f736974206f66203330206574686572206973207265717569726564",
  "source": "/**\"SPDX-License-Identifier: UNLICENSED\" */\r\npragma solidity >=0.4.22 <0.9.0;\r\ncontract CanaraBank {\r\n\r\n    uint256 clientCount;\r\n    mapping (address => uint) private balances;\r\n    address public owner;\r\n\r\n    constructor() payable public{\r\n        require(msg.value==30, \"Initial Deposit of 30 ether is required\");\r\n        clientCount=0;\r\n        owner=msg.sender;\r\n\r\n    }\r\n\r\n    event LogDepositEvent(address indexed accountAddress,uint256 depositAmt);\r\n\r\n    function deposit() public payable returns (uint256){\r\n        balances[msg.sender]+=msg.value;\r\n        emit LogDepositEvent(msg.sender,msg.value);\r\n        \r\n        return balances[msg.sender];\r\n    }\r\n\r\n    function withdraw(uint256 amount)  payable public  returns (uint256){\r\n        require(amount<balances[msg.sender], \"Bank Balance should be greater than withdrawal amount\");\r\n        balances[msg.sender]-=amount;\r\n        msg.sender.transfer(amount);\r\n        return balances[msg.sender];\r\n        \r\n    }\r\n\r\n    function getBankBalanceofCustomer() public view returns (uint256){\r\n        return balances[msg.sender];\r\n    }\r\n\r\n    function getBankBalance() public view returns (uint256){\r\n        return address(this).balance;\r\n    }\r\n\r\n\r\n}",
  "sourcePath": "C:\\Personal\\BlockChain\\MetaCoin\\contracts\\CanaraBank.sol",
  "compiler": {
    "name": "solc",
    "version": "0.5.16+commit.9c3226ce.Emscripten.clang"
  },
  "schemaVersion": "3.4.2",
  "updatedAt": "2021-08-10T17:28:42.592Z",
  "devdoc": {
    "methods": {}
  },
  "userdoc": {
    "methods": {}
  }
}