{
  "contractName": "Hello",
  "abi": [
    {
      "inputs": [
        {
          "internalType": "string",
          "name": "_greeting",
          "type": "string"
        }
      ],
      "payable": false,
      "stateMutability": "nonpayable",
      "type": "constructor"
    },
    {
      "constant": true,
      "inputs": [],
      "name": "displayGreeting",
      "outputs": [
        {
          "internalType": "string",
          "name": "",
          "type": "string"
        }
      ],
      "payable": false,
      "stateMutability": "view",
      "type": "function"
    }
  ],
  "bytecode": "0x608060405234801561001057600080fd5b506040516103493803806103498339818101604052602081101561003357600080fd5b810190808051604051939291908464010000000082111561005357600080fd5b8382019150602082018581111561006957600080fd5b825186600182028301116401000000008211171561008657600080fd5b8083526020830192505050908051906020019080838360005b838110156100ba57808201518184015260208101905061009f565b50505050905090810190601f1680156100e75780820380516001836020036101000a031916815260200191505b50604052505050806000908051906020019061010492919061010b565b50506101b0565b828054600181600116156101000203166002900490600052602060002090601f016020900481019282601f1061014c57805160ff191683800117855561017a565b8280016001018555821561017a579182015b8281111561017957825182559160200191906001019061015e565b5b509050610187919061018b565b5090565b6101ad91905b808211156101a9576000816000905550600101610191565b5090565b90565b61018a806101bf6000396000f3fe608060405234801561001057600080fd5b506004361061002b5760003560e01c8063bdcaa95814610030575b600080fd5b6100386100b3565b6040518080602001828103825283818151815260200191508051906020019080838360005b8381101561007857808201518184015260208101905061005d565b50505050905090810190601f1680156100a55780820380516001836020036101000a031916815260200191505b509250505060405180910390f35b606060008054600181600116156101000203166002900480601f01602080910402602001604051908101604052809291908181526020018280546001816001161561010002031660029004801561014b5780601f106101205761010080835404028352916020019161014b565b820191906000526020600020905b81548152906001019060200180831161012e57829003601f168201915b505050505090509056fea265627a7a72315820fff34d6f7e4a23c2868beba6309ea7aee1a137e6fbb5b02481da3f291854bf9a64736f6c63430005100032",
  "source": "/**\"SPDX-License-Identifier: UNLICENSED\" */\r\npragma solidity >=0.4.22 <0.9.0;\r\ncontract Hello {\r\n    string greeting; ///=\"Welcome to block Chain Test\";\r\n\r\n \r\n    constructor(string memory _greeting) public {\r\n        greeting=_greeting;\r\n    }\r\n\r\n    function displayGreeting() public view returns (string memory){\r\n       \r\n        return greeting;\r\n    }\r\n\r\n}\r\n\r\n\r\n",
  "sourcePath": "C:\\Personal\\BlockChain\\MetaCoin\\contracts\\Hello.sol",
  "compiler": {
    "name": "solc",
    "version": "0.5.16+commit.9c3226ce.Emscripten.clang"
  },
  "schemaVersion": "3.4.2",
  "updatedAt": "2021-08-10T17:28:42.598Z",
  "devdoc": {
    "methods": {}
  },
  "userdoc": {
    "methods": {
      "constructor": "=\"Welcome to block Chain Test\";"
    }
  }
}